{"abi":[{"type":"constructor","inputs":[{"name":"_stakingToken","type":"address","internalType":"address"},{"name":"_rewardToken","type":"address","internalType":"address"}],"stateMutability":"nonpayable"},{"type":"function","name":"REWARD_DENOMINATOR","inputs":[],"outputs":[{"name":"","type":"uint256","internalType":"uint256"}],"stateMutability":"view"},{"type":"function","name":"REWARD_RATE","inputs":[],"outputs":[{"name":"","type":"uint256","internalType":"uint256"}],"stateMutability":"view"},{"type":"function","name":"SECONDS_PER_YEAR","inputs":[],"outputs":[{"name":"","type":"uint256","internalType":"uint256"}],"stateMutability":"view"},{"type":"function","name":"calculateRewards","inputs":[{"name":"user","type":"address","internalType":"address"}],"outputs":[{"name":"","type":"uint256","internalType":"uint256"}],"stateMutability":"view"},{"type":"function","name":"claimRewards","inputs":[],"outputs":[],"stateMutability":"nonpayable"},{"type":"function","name":"getStakerInfo","inputs":[{"name":"user","type":"address","internalType":"address"}],"outputs":[{"name":"stakedAmount","type":"uint256","internalType":"uint256"},{"name":"stakedTimestamp","type":"uint256","internalType":"uint256"},{"name":"pendingRewardAmount","type":"uint256","internalType":"uint256"}],"stateMutability":"view"},{"type":"function","name":"lastUpdateTime","inputs":[],"outputs":[{"name":"","type":"uint256","internalType":"uint256"}],"stateMutability":"view"},{"type":"function","name":"owner","inputs":[],"outputs":[{"name":"","type":"address","internalType":"address"}],"stateMutability":"view"},{"type":"function","name":"renounceOwnership","inputs":[],"outputs":[],"stateMutability":"nonpayable"},{"type":"function","name":"rewardIndex","inputs":[],"outputs":[{"name":"","type":"uint256","internalType":"uint256"}],"stateMutability":"view"},{"type":"function","name":"rewardToken","inputs":[],"outputs":[{"name":"","type":"address","internalType":"contract IStakeFlowToken"}],"stateMutability":"view"},{"type":"function","name":"stake","inputs":[{"name":"amount","type":"uint256","internalType":"uint256"}],"outputs":[],"stateMutability":"nonpayable"},{"type":"function","name":"stakes","inputs":[{"name":"","type":"address","internalType":"address"}],"outputs":[{"name":"amount","type":"uint256","internalType":"uint256"},{"name":"timestamp","type":"uint256","internalType":"uint256"},{"name":"rewardIndex","type":"uint256","internalType":"uint256"}],"stateMutability":"view"},{"type":"function","name":"stakingToken","inputs":[],"outputs":[{"name":"","type":"address","internalType":"contract IERC20"}],"stateMutability":"view"},{"type":"function","name":"totalStaked","inputs":[],"outputs":[{"name":"","type":"uint256","internalType":"uint256"}],"stateMutability":"view"},{"type":"function","name":"transferOwnership","inputs":[{"name":"newOwner","type":"address","internalType":"address"}],"outputs":[],"stateMutability":"nonpayable"},{"type":"function","name":"unstake","inputs":[{"name":"amount","type":"uint256","internalType":"uint256"}],"outputs":[],"stateMutability":"nonpayable"},{"type":"function","name":"updateRewardIndex","inputs":[],"outputs":[],"stateMutability":"nonpayable"},{"type":"event","name":"OwnershipTransferred","inputs":[{"name":"previousOwner","type":"address","indexed":true,"internalType":"address"},{"name":"newOwner","type":"address","indexed":true,"internalType":"address"}],"anonymous":false},{"type":"event","name":"RewardsClaimed","inputs":[{"name":"user","type":"address","indexed":true,"internalType":"address"},{"name":"amount","type":"uint256","indexed":false,"internalType":"uint256"}],"anonymous":false},{"type":"event","name":"TokensStaked","inputs":[{"name":"user","type":"address","indexed":true,"internalType":"address"},{"name":"amount","type":"uint256","indexed":false,"internalType":"uint256"}],"anonymous":false},{"type":"event","name":"TokensUnstaked","inputs":[{"name":"user","type":"address","indexed":true,"internalType":"address"},{"name":"amount","type":"uint256","indexed":false,"internalType":"uint256"}],"anonymous":false},{"type":"error","name":"InsufficientBalance","inputs":[]},{"type":"error","name":"NoStakeFound","inputs":[]},{"type":"error","name":"OwnableInvalidOwner","inputs":[{"name":"owner","type":"address","internalType":"address"}]},{"type":"error","name":"OwnableUnauthorizedAccount","inputs":[{"name":"account","type":"address","internalType":"address"}]},{"type":"error","name":"ReentrancyGuardReentrantCall","inputs":[]},{"type":"error","name":"SafeERC20FailedOperation","inputs":[{"name":"token","type":"address","internalType":"address"}]},{"type":"error","name":"ZeroAmount","inputs":[]}],"bytecode":{"object":"0x60c0604052670de0b6b3a764000060015534801561001b575f5ffd5b50604051611803380380611803833981810160405281019061003d91906102a9565b335f73ffffffffffffffffffffffffffffffffffffffff168173ffffffffffffffffffffffffffffffffffffffff16036100ae575f6040517f1e4fbdf70000000000000000000000000000000000000000000000000000000081526004016100a591906102f6565b60405180910390fd5b6100bd8161015860201b60201c565b5060016100dc6100d161021960201b60201c565b61024260201b60201c565b5f01819055508173ffffffffffffffffffffffffffffffffffffffff1660808173ffffffffffffffffffffffffffffffffffffffff16815250508073ffffffffffffffffffffffffffffffffffffffff1660a08173ffffffffffffffffffffffffffffffffffffffff168152505042600281905550505061030f565b5f5f5f9054906101000a900473ffffffffffffffffffffffffffffffffffffffff169050815f5f6101000a81548173ffffffffffffffffffffffffffffffffffffffff021916908373ffffffffffffffffffffffffffffffffffffffff1602179055508173ffffffffffffffffffffffffffffffffffffffff168173ffffffffffffffffffffffffffffffffffffffff167f8be0079c531659141344cd1fd0a4f28419497f9722a3daafe3b4186f6b6457e060405160405180910390a35050565b5f7f9b779b17422d0df92223018b32b4d1fa46e071723d6817e2486d003becc55f005f1b905090565b5f819050919050565b5f5ffd5b5f73ffffffffffffffffffffffffffffffffffffffff82169050919050565b5f6102788261024f565b9050919050565b6102888161026e565b8114610292575f5ffd5b50565b5f815190506102a38161027f565b92915050565b5f5f604083850312156102bf576102be61024b565b5b5f6102cc85828601610295565b92505060206102dd85828601610295565b9150509250929050565b6102f08161026e565b82525050565b5f6020820190506103095f8301846102e7565b92915050565b60805160a0516114b06103535f395f818161046a015281816106b901528181610a920152610d5201525f8181610598015281816109080152610b2301526114b05ff3fe608060405234801561000f575f5ffd5b5060043610610114575f3560e01c8063819a9398116100a0578063e6a69ab81161006f578063e6a69ab8146102ac578063e6b5c49a146102ca578063e9ee2fa9146102d4578063f2fde38b146102f2578063f7c618c11461030e57610114565b8063819a9398146102365780638da5cb5b14610254578063a694fc3a14610272578063c8f33c911461028e57610114565b806364ab8675116100e757806364ab86751461018e578063715018a6146101be57806372f702f3146101c8578063733bdef0146101e6578063817b1cd21461021857610114565b806316934fc4146101185780632e17de781461014a578063372500ab146101665780635997bb3714610170575b5f5ffd5b610132600480360381019061012d9190611167565b61032c565b604051610141939291906111aa565b60405180910390f35b610164600480360381019061015f9190611209565b610352565b005b61016e610637565b005b61017861079a565b6040516101859190611234565b60405180910390f35b6101a860048036038101906101a39190611167565b6107a0565b6040516101b59190611234565b60405180910390f35b6101c66108f3565b005b6101d0610906565b6040516101dd91906112a8565b60405180910390f35b61020060048036038101906101fb9190611167565b61092a565b60405161020f939291906111aa565b60405180910390f35b6102206109b5565b60405161022d9190611234565b60405180910390f35b61023e6109bb565b60405161024b9190611234565b60405180910390f35b61025c6109c1565b60405161026991906112d0565b60405180910390f35b61028c60048036038101906102879190611209565b6109e8565b005b610296610c07565b6040516102a39190611234565b60405180910390f35b6102b4610c0d565b6040516102c19190611234565b60405180910390f35b6102d2610c15565b005b6102dc610cc6565b6040516102e99190611234565b60405180910390f35b61030c60048036038101906103079190611167565b610ccc565b005b610316610d50565b6040516103239190611309565b60405180910390f35b6004602052805f5260405f205f91509050805f0154908060010154908060020154905083565b61035a610d74565b5f8103610393576040517f1f2a200500000000000000000000000000000000000000000000000000000000815260040160405180910390fd5b61039b610c15565b5f60045f3373ffffffffffffffffffffffffffffffffffffffff1673ffffffffffffffffffffffffffffffffffffffff1681526020019081526020015f2090505f815f015403610417576040517f59be8f0200000000000000000000000000000000000000000000000000000000815260040160405180910390fd5b81815f01541015610454576040517ff4d678b800000000000000000000000000000000000000000000000000000000815260040160405180910390fd5b5f61045e336107a0565b90505f8111156104f1577f000000000000000000000000000000000000000000000000000000000000000073ffffffffffffffffffffffffffffffffffffffff166340c10f1933836040518363ffffffff1660e01b81526004016104c3929190611322565b5f604051808303815f87803b1580156104da575f5ffd5b505af11580156104ec573d5f5f3e3d5ffd5b505050505b82825f015f8282546105039190611376565b925050819055508260035f82825461051b9190611376565b925050819055505f825f0154036105855760045f3373ffffffffffffffffffffffffffffffffffffffff1673ffffffffffffffffffffffffffffffffffffffff1681526020019081526020015f205f5f82015f9055600182015f9055600282015f90555050610591565b60015482600201819055505b6105dc33847f000000000000000000000000000000000000000000000000000000000000000073ffffffffffffffffffffffffffffffffffffffff16610d969092919063ffffffff16565b3373ffffffffffffffffffffffffffffffffffffffff167f9845e367b683334e5c0b12d7b81721ac518e649376fa65e3d68324e8f34f2679846040516106229190611234565b60405180910390a25050610634610de9565b50565b61063f610d74565b610647610c15565b5f610651336107a0565b90505f81036106605750610790565b5f60045f3373ffffffffffffffffffffffffffffffffffffffff1673ffffffffffffffffffffffffffffffffffffffff1681526020019081526020015f2090505f815f015411156106b75760015481600201819055505b7f000000000000000000000000000000000000000000000000000000000000000073ffffffffffffffffffffffffffffffffffffffff166340c10f1933846040518363ffffffff1660e01b8152600401610712929190611322565b5f604051808303815f87803b158015610729575f5ffd5b505af115801561073b573d5f5f3e3d5ffd5b505050503373ffffffffffffffffffffffffffffffffffffffff167ffc30cddea38e2bf4d6ea7d3f9ed3b6ad7f176419f4963bd81318067a4aee73fe836040516107859190611234565b60405180910390a250505b610798610de9565b565b6103e881565b5f5f60045f8473ffffffffffffffffffffffffffffffffffffffff1673ffffffffffffffffffffffffffffffffffffffff1681526020019081526020015f206040518060600160405290815f82015481526020016001820154815260200160028201548152505090505f815f01510361081c575f9150506108ee565b5f60015490505f600254426108319190611376565b90505f60035411801561084357505f81115b156108b2575f6301e1338061271061085b91906113a9565b826103e860035461086c91906113a9565b61087691906113a9565b6108809190611417565b9050600354670de0b6b3a76400008261089991906113a9565b6108a39190611417565b836108ae9190611447565b9250505b5f8360400151836108c39190611376565b9050670de0b6b3a764000081855f01516108dd91906113a9565b6108e79190611417565b9450505050505b919050565b6108fb610e03565b6109045f610e8a565b565b7f000000000000000000000000000000000000000000000000000000000000000081565b5f5f5f5f60045f8673ffffffffffffffffffffffffffffffffffffffff1673ffffffffffffffffffffffffffffffffffffffff1681526020019081526020015f206040518060600160405290815f8201548152602001600182015481526020016002820154815250509050805f01519350806020015192506109ab856107a0565b9150509193909250565b60035481565b61271081565b5f5f5f9054906101000a900473ffffffffffffffffffffffffffffffffffffffff16905090565b6109f0610d74565b5f8103610a29576040517f1f2a200500000000000000000000000000000000000000000000000000000000815260040160405180910390fd5b610a31610c15565b5f60045f3373ffffffffffffffffffffffffffffffffffffffff1673ffffffffffffffffffffffffffffffffffffffff1681526020019081526020015f2090505f815f01541115610b1b575f610a86336107a0565b90505f811115610b19577f000000000000000000000000000000000000000000000000000000000000000073ffffffffffffffffffffffffffffffffffffffff166340c10f1933836040518363ffffffff1660e01b8152600401610aeb929190611322565b5f604051808303815f87803b158015610b02575f5ffd5b505af1158015610b14573d5f5f3e3d5ffd5b505050505b505b610b683330847f000000000000000000000000000000000000000000000000000000000000000073ffffffffffffffffffffffffffffffffffffffff16610f4b909392919063ffffffff16565b81815f015f828254610b7a9190611447565b9250508190555042816001018190555060015481600201819055508160035f828254610ba69190611447565b925050819055503373ffffffffffffffffffffffffffffffffffffffff167fb539ca1e5c8d398ddf1c41c30166f33404941683be4683319b57669a93dad4ef83604051610bf39190611234565b60405180910390a250610c04610de9565b50565b60025481565b6301e1338081565b5f60035403610c2a5742600281905550610cc4565b5f60025442610c399190611376565b90505f8103610c485750610cc4565b5f6301e13380612710610c5b91906113a9565b826103e8600354610c6c91906113a9565b610c7691906113a9565b610c809190611417565b9050600354670de0b6b3a764000082610c9991906113a9565b610ca39190611417565b60015f828254610cb39190611447565b925050819055504260028190555050505b565b60015481565b610cd4610e03565b5f73ffffffffffffffffffffffffffffffffffffffff168173ffffffffffffffffffffffffffffffffffffffff1603610d44575f6040517f1e4fbdf7000000000000000000000000000000000000000000000000000000008152600401610d3b91906112d0565b60405180910390fd5b610d4d81610e8a565b50565b7f000000000000000000000000000000000000000000000000000000000000000081565b610d7c610fa0565b6002610d8e610d89610fe1565b61100a565b5f0181905550565b610da38383836001611013565b610de457826040517f5274afe7000000000000000000000000000000000000000000000000000000008152600401610ddb91906112d0565b60405180910390fd5b505050565b6001610dfb610df6610fe1565b61100a565b5f0181905550565b610e0b611075565b73ffffffffffffffffffffffffffffffffffffffff16610e296109c1565b73ffffffffffffffffffffffffffffffffffffffff1614610e8857610e4c611075565b6040517f118cdaa7000000000000000000000000000000000000000000000000000000008152600401610e7f91906112d0565b60405180910390fd5b565b5f5f5f9054906101000a900473ffffffffffffffffffffffffffffffffffffffff169050815f5f6101000a81548173ffffffffffffffffffffffffffffffffffffffff021916908373ffffffffffffffffffffffffffffffffffffffff1602179055508173ffffffffffffffffffffffffffffffffffffffff168173ffffffffffffffffffffffffffffffffffffffff167f8be0079c531659141344cd1fd0a4f28419497f9722a3daafe3b4186f6b6457e060405160405180910390a35050565b610f5984848484600161107c565b610f9a57836040517f5274afe7000000000000000000000000000000000000000000000000000000008152600401610f9191906112d0565b60405180910390fd5b50505050565b610fa86110ed565b15610fdf576040517f3ee5aeb500000000000000000000000000000000000000000000000000000000815260040160405180910390fd5b565b5f7f9b779b17422d0df92223018b32b4d1fa46e071723d6817e2486d003becc55f005f1b905090565b5f819050919050565b5f5f63a9059cbb60e01b9050604051815f525f1960601c86166004528460245260205f60445f5f8b5af1925060015f5114831661106757838315161561105b573d5f823e3d81fd5b5f873b113d1516831692505b806040525050949350505050565b5f33905090565b5f5f6323b872dd60e01b9050604051815f525f1960601c87166004525f1960601c86166024528460445260205f60645f5f8c5af1925060015f511483166110da5783831516156110ce573d5f823e3d81fd5b5f883b113d1516831692505b806040525f606052505095945050505050565b5f60026111006110fb610fe1565b61100a565b5f015414905090565b5f5ffd5b5f73ffffffffffffffffffffffffffffffffffffffff82169050919050565b5f6111368261110d565b9050919050565b6111468161112c565b8114611150575f5ffd5b50565b5f813590506111618161113d565b92915050565b5f6020828403121561117c5761117b611109565b5b5f61118984828501611153565b91505092915050565b5f819050919050565b6111a481611192565b82525050565b5f6060820190506111bd5f83018661119b565b6111ca602083018561119b565b6111d7604083018461119b565b949350505050565b6111e881611192565b81146111f2575f5ffd5b50565b5f81359050611203816111df565b92915050565b5f6020828403121561121e5761121d611109565b5b5f61122b848285016111f5565b91505092915050565b5f6020820190506112475f83018461119b565b92915050565b5f819050919050565b5f61127061126b6112668461110d565b61124d565b61110d565b9050919050565b5f61128182611256565b9050919050565b5f61129282611277565b9050919050565b6112a281611288565b82525050565b5f6020820190506112bb5f830184611299565b92915050565b6112ca8161112c565b82525050565b5f6020820190506112e35f8301846112c1565b92915050565b5f6112f382611277565b9050919050565b611303816112e9565b82525050565b5f60208201905061131c5f8301846112fa565b92915050565b5f6040820190506113355f8301856112c1565b611342602083018461119b565b9392505050565b7f4e487b71000000000000000000000000000000000000000000000000000000005f52601160045260245ffd5b5f61138082611192565b915061138b83611192565b92508282039050818111156113a3576113a2611349565b5b92915050565b5f6113b382611192565b91506113be83611192565b92508282026113cc81611192565b915082820484148315176113e3576113e2611349565b5b5092915050565b7f4e487b71000000000000000000000000000000000000000000000000000000005f52601260045260245ffd5b5f61142182611192565b915061142c83611192565b92508261143c5761143b6113ea565b5b828204905092915050565b5f61145182611192565b915061145c83611192565b925082820190508082111561147457611473611349565b5b9291505056fea2646970667358221220c386b545f01cb7740f32b8100be5c19806c26029654718f86bda178ae5ffcde564736f6c63430008210033","linkReferences":{}},"methodIdentifiers":{"REWARD_DENOMINATOR()":"819a9398","REWARD_RATE()":"5997bb37","SECONDS_PER_YEAR()":"e6a69ab8","calculateRewards(address)":"64ab8675","claimRewards()":"372500ab","getStakerInfo(address)":"733bdef0","lastUpdateTime()":"c8f33c91","owner()":"8da5cb5b","renounceOwnership()":"715018a6","rewardIndex()":"e9ee2fa9","rewardToken()":"f7c618c1","stake(uint256)":"a694fc3a","stakes(address)":"16934fc4","stakingToken()":"72f702f3","totalStaked()":"817b1cd2","transferOwnership(address)":"f2fde38b","unstake(uint256)":"2e17de78","updateRewardIndex()":"e6b5c49a"},"id":33}