{"abi":[{"type":"constructor","inputs":[],"stateMutability":"nonpayable"},{"type":"function","name":"MAX_SUPPLY","inputs":[],"outputs":[{"name":"","type":"uint256","internalType":"uint256"}],"stateMutability":"view"},{"type":"function","name":"addMinter","inputs":[{"name":"_minter","type":"address","internalType":"address"}],"outputs":[],"stateMutability":"nonpayable"},{"type":"function","name":"allowance","inputs":[{"name":"owner","type":"address","internalType":"address"},{"name":"spender","type":"address","internalType":"address"}],"outputs":[{"name":"","type":"uint256","internalType":"uint256"}],"stateMutability":"view"},{"type":"function","name":"approve","inputs":[{"name":"spender","type":"address","internalType":"address"},{"name":"value","type":"uint256","internalType":"uint256"}],"outputs":[{"name":"","type":"bool","internalType":"bool"}],"stateMutability":"nonpayable"},{"type":"function","name":"balanceOf","inputs":[{"name":"account","type":"address","internalType":"address"}],"outputs":[{"name":"","type":"uint256","internalType":"uint256"}],"stateMutability":"view"},{"type":"function","name":"burn","inputs":[{"name":"amount","type":"uint256","internalType":"uint256"}],"outputs":[],"stateMutability":"nonpayable"},{"type":"function","name":"decimals","inputs":[],"outputs":[{"name":"","type":"uint8","internalType":"uint8"}],"stateMutability":"view"},{"type":"function","name":"mint","inputs":[{"name":"to","type":"address","internalType":"address"},{"name":"amount","type":"uint256","internalType":"uint256"}],"outputs":[],"stateMutability":"nonpayable"},{"type":"function","name":"minters","inputs":[{"name":"","type":"address","internalType":"address"}],"outputs":[{"name":"","type":"bool","internalType":"bool"}],"stateMutability":"view"},{"type":"function","name":"mintingEnabled","inputs":[],"outputs":[{"name":"","type":"bool","internalType":"bool"}],"stateMutability":"view"},{"type":"function","name":"name","inputs":[],"outputs":[{"name":"","type":"string","internalType":"string"}],"stateMutability":"view"},{"type":"function","name":"owner","inputs":[],"outputs":[{"name":"","type":"address","internalType":"address"}],"stateMutability":"view"},{"type":"function","name":"removeMinter","inputs":[{"name":"_minter","type":"address","internalType":"address"}],"outputs":[],"stateMutability":"nonpayable"},{"type":"function","name":"renounceOwnership","inputs":[],"outputs":[],"stateMutability":"nonpayable"},{"type":"function","name":"setMintingEnabled","inputs":[{"name":"_enabled","type":"bool","internalType":"bool"}],"outputs":[],"stateMutability":"nonpayable"},{"type":"function","name":"symbol","inputs":[],"outputs":[{"name":"","type":"string","internalType":"string"}],"stateMutability":"view"},{"type":"function","name":"totalSupply","inputs":[],"outputs":[{"name":"","type":"uint256","internalType":"uint256"}],"stateMutability":"view"},{"type":"function","name":"transfer","inputs":[{"name":"to","type":"address","internalType":"address"},{"name":"value","type":"uint256","internalType":"uint256"}],"outputs":[{"name":"","type":"bool","internalType":"bool"}],"stateMutability":"nonpayable"},{"type":"function","name":"transferFrom","inputs":[{"name":"from","type":"address","internalType":"address"},{"name":"to","type":"address","internalType":"address"},{"name":"value","type":"uint256","internalType":"uint256"}],"outputs":[{"name":"","type":"bool","internalType":"bool"}],"stateMutability":"nonpayable"},{"type":"function","name":"transferOwnership","inputs":[{"name":"newOwner","type":"address","internalType":"address"}],"outputs":[],"stateMutability":"nonpayable"},{"type":"event","name":"Approval","inputs":[{"name":"owner","type":"address","indexed":true,"internalType":"address"},{"name":"spender","type":"address","indexed":true,"internalType":"address"},{"name":"value","type":"uint256","indexed":false,"internalType":"uint256"}],"anonymous":false},{"type":"event","name":"MinterAdded","inputs":[{"name":"minter","type":"address","indexed":true,"internalType":"address"}],"anonymous":false},{"type":"event","name":"MinterRemoved","inputs":[{"name":"minter","type":"address","indexed":true,"internalType":"address"}],"anonymous":false},{"type":"event","name":"MintingStatusChanged","inputs":[{"name":"enabled","type":"bool","indexed":false,"internalType":"bool"}],"anonymous":false},{"type":"event","name":"OwnershipTransferred","inputs":[{"name":"previousOwner","type":"address","indexed":true,"internalType":"address"},{"name":"newOwner","type":"address","indexed":true,"internalType":"address"}],"anonymous":false},{"type":"event","name":"Transfer","inputs":[{"name":"from","type":"address","indexed":true,"internalType":"address"},{"name":"to","type":"address","indexed":true,"internalType":"address"},{"name":"value","type":"uint256","indexed":false,"internalType":"uint256"}],"anonymous":false},{"type":"error","name":"ERC20InsufficientAllowance","inputs":[{"name":"spender","type":"address","internalType":"address"},{"name":"allowance","type":"uint256","internalType":"uint256"},{"name":"needed","type":"uint256","internalType":"uint256"}]},{"type":"error","name":"ERC20InsufficientBalance","inputs":[{"name":"sender","type":"address","internalType":"address"},{"name":"balance","type":"uint256","internalType":"uint256"},{"name":"needed","type":"uint256","internalType":"uint256"}]},{"type":"error","name":"ERC20InvalidApprover","inputs":[{"name":"approver","type":"address","internalType":"address"}]},{"type":"error","name":"ERC20InvalidReceiver","inputs":[{"name":"receiver","type":"address","internalType":"address"}]},{"type":"error","name":"ERC20InvalidSender","inputs":[{"name":"sender","type":"address","internalType":"address"}]},{"type":"error","name":"ERC20InvalidSpender","inputs":[{"name":"spender","type":"address","internalType":"address"}]},{"type":"error","name":"MaxSupplyExceeded","inputs":[]},{"type":"error","name":"MintingDisabled","inputs":[]},{"type":"error","name":"NotAuthorizedMinter","inputs":[]},{"type":"error","name":"OwnableInvalidOwner","inputs":[{"name":"owner","type":"address","internalType":"address"}]},{"type":"error","name":"OwnableUnauthorizedAccount","inputs":[{"name":"account","type":"address","internalType":"address"}]}],"bytecode":{"object":"0x60806040526001600560146101000a81548160ff02191690831515021790555034801561002a575f5ffd5b50336040518060400160405280600f81526020017f5374616b65466c6f7720546f6b656e00000000000000000000000000000000008152506040518060400160405280600381526020017f534654000000000000000000000000000000000000000000000000000000000081525081600390816100a79190610450565b5080600490816100b79190610450565b5050505f73ffffffffffffffffffffffffffffffffffffffff168173ffffffffffffffffffffffffffffffffffffffff160361012a575f6040517f1e4fbdf7000000000000000000000000000000000000000000000000000000008152600401610121919061055e565b60405180910390fd5b6101398161013f60201b60201c565b50610577565b5f60055f9054906101000a900473ffffffffffffffffffffffffffffffffffffffff1690508160055f6101000a81548173ffffffffffffffffffffffffffffffffffffffff021916908373ffffffffffffffffffffffffffffffffffffffff1602179055508173ffffffffffffffffffffffffffffffffffffffff168173ffffffffffffffffffffffffffffffffffffffff167f8be0079c531659141344cd1fd0a4f28419497f9722a3daafe3b4186f6b6457e060405160405180910390a35050565b5f81519050919050565b7f4e487b71000000000000000000000000000000000000000000000000000000005f52604160045260245ffd5b7f4e487b71000000000000000000000000000000000000000000000000000000005f52602260045260245ffd5b5f600282049050600182168061027d57607f821691505b6020821081036102905761028f610239565b5b50919050565b5f819050815f5260205f209050919050565b5f6020601f8301049050919050565b5f82821b905092915050565b5f600883026102f27fffffffffffffffffffffffffffffffffffffffffffffffffffffffffffffffff826102b7565b6102fc86836102b7565b95508019841693508086168417925050509392505050565b5f819050919050565b5f819050919050565b5f61034061033b61033684610314565b61031d565b610314565b9050919050565b5f819050919050565b61035983610326565b61036d61036582610347565b8484546102c3565b825550505050565b5f5f905090565b610384610375565b61038f818484610350565b505050565b5f5b828110156103b5576103aa5f82840161037c565b600181019050610396565b505050565b601f8211156104085782821115610407576103d481610296565b6103dd836102a8565b6103e6856102a8565b60208610156103f3575f90505b80830161040282840382610394565b505050505b5b505050565b5f82821c905092915050565b5f6104285f198460080261040d565b1980831691505092915050565b5f6104408383610419565b9150826002028217905092915050565b61045982610202565b67ffffffffffffffff8111156104725761047161020c565b5b61047c8254610266565b6104878282856103ba565b5f60209050601f8311600181146104b8575f84156104a6578287015190505b6104b08582610435565b865550610517565b601f1984166104c686610296565b5f5b828110156104ed578489015182556001820191506020850194506020810190506104c8565b8683101561050a5784890151610506601f891682610419565b8355505b6001600288020188555050505b505050505050565b5f73ffffffffffffffffffffffffffffffffffffffff82169050919050565b5f6105488261051f565b9050919050565b6105588161053e565b82525050565b5f6020820190506105715f83018461054f565b92915050565b611697806105845f395ff3fe608060405234801561000f575f5ffd5b506004361061012a575f3560e01c806370a08231116100ab5780639fd6db121161006f5780639fd6db1214610308578063a9059cbb14610326578063dd62ed3e14610356578063f2fde38b14610386578063f46eccc4146103a25761012a565b806370a0823114610276578063715018a6146102a65780638da5cb5b146102b057806395d89b41146102ce578063983b2d56146102ec5761012a565b8063313ce567116100f2578063313ce567146101e657806332cb6b0c1461020457806340c10f191461022257806342966c681461023e5780634ea3871a1461025a5761012a565b806306fdde031461012e578063095ea7b31461014c57806318160ddd1461017c57806323b872dd1461019a5780633092afd5146101ca575b5f5ffd5b6101366103d2565b6040516101439190611290565b60405180910390f35b61016660048036038101906101619190611341565b610462565b6040516101739190611399565b60405180910390f35b610184610484565b60405161019191906113c1565b60405180910390f35b6101b460048036038101906101af91906113da565b61048d565b6040516101c19190611399565b60405180910390f35b6101e460048036038101906101df919061142a565b6104bb565b005b6101ee61055d565b6040516101fb9190611470565b60405180910390f35b61020c610565565b60405161021991906113c1565b60405180910390f35b61023c60048036038101906102379190611341565b610574565b005b61025860048036038101906102539190611489565b6106e0565b005b610274600480360381019061026f91906114de565b6106ed565b005b610290600480360381019061028b919061142a565b610749565b60405161029d91906113c1565b60405180910390f35b6102ae61078e565b005b6102b86107a1565b6040516102c59190611518565b60405180910390f35b6102d66107c9565b6040516102e39190611290565b60405180910390f35b6103066004803603810190610301919061142a565b610859565b005b6103106108fc565b60405161031d9190611399565b60405180910390f35b610340600480360381019061033b9190611341565b61090f565b60405161034d9190611399565b60405180910390f35b610370600480360381019061036b9190611531565b610931565b60405161037d91906113c1565b60405180910390f35b6103a0600480360381019061039b919061142a565b6109b3565b005b6103bc60048036038101906103b7919061142a565b610a37565b6040516103c99190611399565b60405180910390f35b6060600380546103e19061159c565b80601f016020809104026020016040519081016040528092919081815260200182805461040d9061159c565b80156104585780601f1061042f57610100808354040283529160200191610458565b820191905f5260205f20905b81548152906001019060200180831161043b57829003601f168201915b5050505050905090565b5f5f61046c610a54565b9050610479818585610a5b565b600191505092915050565b5f600254905090565b5f5f610497610a54565b90506104a4858285610a6d565b6104af858585610b00565b60019150509392505050565b6104c3610bf0565b5f60065f8373ffffffffffffffffffffffffffffffffffffffff1673ffffffffffffffffffffffffffffffffffffffff1681526020019081526020015f205f6101000a81548160ff0219169083151502179055508073ffffffffffffffffffffffffffffffffffffffff167fe94479a9f7e1952cc78f2d6baab678adc1b772d936c6583def489e524cb6669260405160405180910390a250565b5f6012905090565b6a084595161401484a00000081565b60065f3373ffffffffffffffffffffffffffffffffffffffff1673ffffffffffffffffffffffffffffffffffffffff1681526020019081526020015f205f9054906101000a900460ff161580156105fe57506105ce6107a1565b73ffffffffffffffffffffffffffffffffffffffff163373ffffffffffffffffffffffffffffffffffffffff1614155b15610635576040517fcd2e8e8000000000000000000000000000000000000000000000000000000000815260040160405180910390fd5b600560149054906101000a900460ff1661067b576040517faf79b43700000000000000000000000000000000000000000000000000000000815260040160405180910390fd5b6a084595161401484a00000081610690610484565b61069a91906115f9565b11156106d2576040517f8a164f6300000000000000000000000000000000000000000000000000000000815260040160405180910390fd5b6106dc8282610c77565b5050565b6106ea3382610cf6565b50565b6106f5610bf0565b80600560146101000a81548160ff0219169083151502179055507f41f386d449eec03c1c3b75bbba9c18df70aa19779ff47f68eab4b6a66fb399d48160405161073e9190611399565b60405180910390a150565b5f5f5f8373ffffffffffffffffffffffffffffffffffffffff1673ffffffffffffffffffffffffffffffffffffffff1681526020019081526020015f20549050919050565b610796610bf0565b61079f5f610d75565b565b5f60055f9054906101000a900473ffffffffffffffffffffffffffffffffffffffff16905090565b6060600480546107d89061159c565b80601f01602080910402602001604051908101604052809291908181526020018280546108049061159c565b801561084f5780601f106108265761010080835404028352916020019161084f565b820191905f5260205f20905b81548152906001019060200180831161083257829003601f168201915b5050505050905090565b610861610bf0565b600160065f8373ffffffffffffffffffffffffffffffffffffffff1673ffffffffffffffffffffffffffffffffffffffff1681526020019081526020015f205f6101000a81548160ff0219169083151502179055508073ffffffffffffffffffffffffffffffffffffffff167f6ae172837ea30b801fbfcdd4108aa1d5bf8ff775444fd70256b44e6bf3dfc3f660405160405180910390a250565b600560149054906101000a900460ff1681565b5f5f610919610a54565b9050610926818585610b00565b600191505092915050565b5f60015f8473ffffffffffffffffffffffffffffffffffffffff1673ffffffffffffffffffffffffffffffffffffffff1681526020019081526020015f205f8373ffffffffffffffffffffffffffffffffffffffff1673ffffffffffffffffffffffffffffffffffffffff1681526020019081526020015f2054905092915050565b6109bb610bf0565b5f73ffffffffffffffffffffffffffffffffffffffff168173ffffffffffffffffffffffffffffffffffffffff1603610a2b575f6040517f1e4fbdf7000000000000000000000000000000000000000000000000000000008152600401610a229190611518565b60405180910390fd5b610a3481610d75565b50565b6006602052805f5260405f205f915054906101000a900460ff1681565b5f33905090565b610a688383836001610e38565b505050565b5f610a788484610931565b90507fffffffffffffffffffffffffffffffffffffffffffffffffffffffffffffffff811015610afa5781811015610aeb578281836040517ffb8f41b2000000000000000000000000000000000000000000000000000000008152600401610ae29392919061162c565b60405180910390fd5b610af984848484035f610e38565b5b50505050565b5f73ffffffffffffffffffffffffffffffffffffffff168373ffffffffffffffffffffffffffffffffffffffff1603610b70575f6040517f96c6fd1e000000000000000000000000000000000000000000000000000000008152600401610b679190611518565b60405180910390fd5b5f73ffffffffffffffffffffffffffffffffffffffff168273ffffffffffffffffffffffffffffffffffffffff1603610be0575f6040517fec442f05000000000000000000000000000000000000000000000000000000008152600401610bd79190611518565b60405180910390fd5b610beb838383611007565b505050565b610bf8610a54565b73ffffffffffffffffffffffffffffffffffffffff16610c166107a1565b73ffffffffffffffffffffffffffffffffffffffff1614610c7557610c39610a54565b6040517f118cdaa7000000000000000000000000000000000000000000000000000000008152600401610c6c9190611518565b60405180910390fd5b565b5f73ffffffffffffffffffffffffffffffffffffffff168273ffffffffffffffffffffffffffffffffffffffff1603610ce7575f6040517fec442f05000000000000000000000000000000000000000000000000000000008152600401610cde9190611518565b60405180910390fd5b610cf25f8383611007565b5050565b5f73ffffffffffffffffffffffffffffffffffffffff168273ffffffffffffffffffffffffffffffffffffffff1603610d66575f6040517f96c6fd1e000000000000000000000000000000000000000000000000000000008152600401610d5d9190611518565b60405180910390fd5b610d71825f83611007565b5050565b5f60055f9054906101000a900473ffffffffffffffffffffffffffffffffffffffff1690508160055f6101000a81548173ffffffffffffffffffffffffffffffffffffffff021916908373ffffffffffffffffffffffffffffffffffffffff1602179055508173ffffffffffffffffffffffffffffffffffffffff168173ffffffffffffffffffffffffffffffffffffffff167f8be0079c531659141344cd1fd0a4f28419497f9722a3daafe3b4186f6b6457e060405160405180910390a35050565b5f73ffffffffffffffffffffffffffffffffffffffff168473ffffffffffffffffffffffffffffffffffffffff1603610ea8575f6040517fe602df05000000000000000000000000000000000000000000000000000000008152600401610e9f9190611518565b60405180910390fd5b5f73ffffffffffffffffffffffffffffffffffffffff168373ffffffffffffffffffffffffffffffffffffffff1603610f18575f6040517f94280d62000000000000000000000000000000000000000000000000000000008152600401610f0f9190611518565b60405180910390fd5b8160015f8673ffffffffffffffffffffffffffffffffffffffff1673ffffffffffffffffffffffffffffffffffffffff1681526020019081526020015f205f8573ffffffffffffffffffffffffffffffffffffffff1673ffffffffffffffffffffffffffffffffffffffff1681526020019081526020015f20819055508015611001578273ffffffffffffffffffffffffffffffffffffffff168473ffffffffffffffffffffffffffffffffffffffff167f8c5be1e5ebec7d5bd14f71427d1e84f3dd0314c0f7b2291e5b200ac8c7c3b92584604051610ff891906113c1565b60405180910390a35b50505050565b5f73ffffffffffffffffffffffffffffffffffffffff168373ffffffffffffffffffffffffffffffffffffffff1603611057578060025f82825461104b91906115f9565b92505081905550611125565b5f5f5f8573ffffffffffffffffffffffffffffffffffffffff1673ffffffffffffffffffffffffffffffffffffffff1681526020019081526020015f20549050818110156110e0578381836040517fe450d38c0000000000000000000000000000000000000000000000000000000081526004016110d79392919061162c565b60405180910390fd5b8181035f5f8673ffffffffffffffffffffffffffffffffffffffff1673ffffffffffffffffffffffffffffffffffffffff1681526020019081526020015f2081905550505b5f73ffffffffffffffffffffffffffffffffffffffff168273ffffffffffffffffffffffffffffffffffffffff160361116c578060025f82825403925050819055506111b6565b805f5f8473ffffffffffffffffffffffffffffffffffffffff1673ffffffffffffffffffffffffffffffffffffffff1681526020019081526020015f205f82825401925050819055505b8173ffffffffffffffffffffffffffffffffffffffff168373ffffffffffffffffffffffffffffffffffffffff167fddf252ad1be2c89b69c2b068fc378daa952ba7f163c4a11628f55a4df523b3ef8360405161121391906113c1565b60405180910390a3505050565b5f81519050919050565b5f82825260208201905092915050565b8281835e5f83830152505050565b5f601f19601f8301169050919050565b5f61126282611220565b61126c818561122a565b935061127c81856020860161123a565b61128581611248565b840191505092915050565b5f6020820190508181035f8301526112a88184611258565b905092915050565b5f5ffd5b5f73ffffffffffffffffffffffffffffffffffffffff82169050919050565b5f6112dd826112b4565b9050919050565b6112ed816112d3565b81146112f7575f5ffd5b50565b5f81359050611308816112e4565b92915050565b5f819050919050565b6113208161130e565b811461132a575f5ffd5b50565b5f8135905061133b81611317565b92915050565b5f5f60408385031215611357576113566112b0565b5b5f611364858286016112fa565b92505060206113758582860161132d565b9150509250929050565b5f8115159050919050565b6113938161137f565b82525050565b5f6020820190506113ac5f83018461138a565b92915050565b6113bb8161130e565b82525050565b5f6020820190506113d45f8301846113b2565b92915050565b5f5f5f606084860312156113f1576113f06112b0565b5b5f6113fe868287016112fa565b935050602061140f868287016112fa565b92505060406114208682870161132d565b9150509250925092565b5f6020828403121561143f5761143e6112b0565b5b5f61144c848285016112fa565b91505092915050565b5f60ff82169050919050565b61146a81611455565b82525050565b5f6020820190506114835f830184611461565b92915050565b5f6020828403121561149e5761149d6112b0565b5b5f6114ab8482850161132d565b91505092915050565b6114bd8161137f565b81146114c7575f5ffd5b50565b5f813590506114d8816114b4565b92915050565b5f602082840312156114f3576114f26112b0565b5b5f611500848285016114ca565b91505092915050565b611512816112d3565b82525050565b5f60208201905061152b5f830184611509565b92915050565b5f5f60408385031215611547576115466112b0565b5b5f611554858286016112fa565b9250506020611565858286016112fa565b9150509250929050565b7f4e487b71000000000000000000000000000000000000000000000000000000005f52602260045260245ffd5b5f60028204905060018216806115b357607f821691505b6020821081036115c6576115c561156f565b5b50919050565b7f4e487b71000000000000000000000000000000000000000000000000000000005f52601160045260245ffd5b5f6116038261130e565b915061160e8361130e565b9250828201905080821115611626576116256115cc565b5b92915050565b5f60608201905061163f5f830186611509565b61164c60208301856113b2565b61165960408301846113b2565b94935050505056fea264697066735822122061a9b0390b10f62699247b7fc2c774ae614cc4aa5dbee0ba9aeaccfaa934317f64736f6c63430008210033","linkReferences":{}},"methodIdentifiers":{"MAX_SUPPLY()":"32cb6b0c","addMinter(address)":"983b2d56","allowance(address,address)":"dd62ed3e","approve(address,uint256)":"095ea7b3","balanceOf(address)":"70a08231","burn(uint256)":"42966c68","decimals()":"313ce567","mint(address,uint256)":"40c10f19","minters(address)":"f46eccc4","mintingEnabled()":"9fd6db12","name()":"06fdde03","owner()":"8da5cb5b","removeMinter(address)":"3092afd5","renounceOwnership()":"715018a6","setMintingEnabled(bool)":"4ea3871a","symbol()":"95d89b41","totalSupply()":"18160ddd","transfer(address,uint256)":"a9059cbb","transferFrom(address,address,uint256)":"23b872dd","transferOwnership(address)":"f2fde38b"},"id":32}